:020000040800F2
:10000000282A0020A101000831530008F34D000800
:100010002D530008650B0008317500080000000032
:10002000000000000000000000000000D15B00089C
:10003000690B00080000000071530008B972000845
:10004000BB010008BB010008BB01000819570008EC
:10005000BB010008BB0100086B0B0008BB010008D6
:10006000BB010008BB010008BB010008BB01000880
:10007000BB010008BB010008BB010008BB01000870
:10008000BB010008BB010008BB010008BB01000860
:10009000BB010008BB010008BB010008BB01000850
:1000A000BB010008BB010008BB010008BB01000840
:1000B000BB0100080000000000000000BB010008B8
:1000C000BB010008BB010008BB010008BB01000820
:1000D000BB010008F1740008BB010008BB01000867
:1000E000BB010008BB010008000000000000000088
:1000F0000000000000000000000000000000000000
:1001000000000000BB01000800000000BB01000867
:100110000000000000000000BB010008BB01000857
:10012000BB010008BB010008BB010008BB010008BF
:10013000BB010008000000000000000000000000FB
:10014000BB010008BB010008BB0100080000000063
:10015000BB010008BB010008BB010008BB0100088F
:10016000BB010008BB010008BB0100080000000043
:10017000BB010008BB0100080000000000000000F7
:10018000BB010008BB010008BB010008DFF80CD070
:1001900000F02AFB0048004705850008282A0020B7
:1001A0000648804706480047FEE7FEE7FEE7FEE711
:1001B000FEE7FEE7FEE7FEE7FEE7FEE771730008F5
:1001C0008D01000840EA01039B0703D009E008C93C
:1001D000121F08C0042AFAD203E011F8013B00F80C
:1001E000013B521EF9D27047D2B201E000F8012B58
:1001F000491EFBD270470022F6E710B513460A46A7
:1002000004461946FFF7F0FF204610BD2DE9FE4FCA
:10021000804681EA0300C00F0C46009021F00041A7
:1002200023F00045B8EB0200A94105D24046214623
:1002300090461C460B46024623F00040104347D030
:10024000270DC7F30A00C3F30A510290401A019028
:1002500040286BDAC3F3130040F4801B00989246E9
:1002600020B10023D2EB030A63EB0B0B0198594634
:10027000C0F14002504600F0C2F906460D46504615
:100280005946019A00F0DAF910EB080061410024A8
:1002900087EA115284EAE7731A4340D0009A62B3A6
:1002A000019A012A4FEA075215DC001B61EB02019B
:1002B0004FF0004202EA0752CDE90042001C41F52E
:1002C000801132462B4600F011FA03B000F045B819
:1002D00040462146F9E7001B61EB0201001C41F595
:1002E000801300185B412018A2F5001747EB0301AB
:1002F00040EAD570B6196D4111E06D084FEA360637
:1003000045EAC0754FEA0752001B61EB0201001C71
:1003100041F5801149084FEA300000195141324639
:100320002B4603B000F01CB800F0D1B900980122B0
:1003300040000023D0EB020263EBE07300982146FB
:100340004FEAE074B8EB000061EB0401E9E783F0E9
:1003500000435BE781F0004158E730BCBDE8C08F47
:1003600030BCBDE8C04FFFF7DFBF2DE9FE4F81EA8B
:10037000030404F0004421F0004100944FF0000B0E
:1003800023F0004350EA01045ED052EA03045BD03C
:10039000C3F30A54C1F30A552C44A4F2F334019474
:1003A000A0FB0254C1F3130141F48011C3F3130302
:1003B00043F4801301FB024400FB034E840A970AB6
:1003C00044EA815447EA8357A4FB076802958D0AE3
:1003D00005FB07854FEA932C04FB0C542705029D6F
:1003E0004FEA065847EA1637B5EB08056EEB070CDF
:1003F000870E920E47EA811742EA8312A7FB020199
:10040000B6EB0B0164EB00042B0D43EA0C335E18D2
:1004100044EB1C50DA465146E7FB0201C5F31304D6
:100420004FEA0B3343EA14534FEA0432019C43EA88
:100430000603A4F10C040294009CCDE900B400F082
:1004400055F903B000F003B800200146F9E730BCCD
:10045000BDE8C08F2DE9F04D81EA030404F0004BA4
:1004600021F0004514464FF0000A23F0004150EA05
:10047000050220D054EA01021DD0C5F30A570246F6
:10048000C5F31303C1F31300C1F30A5640F48015FA
:1004900043F48013A7EB0608101BD64608F2FD387C
:1004A00073EB050002D308F1010801E092185B41EB
:1004B000B8F1000F03DA00200146BDE8F08D0020FE
:1004C0004FF48011064684460EE0171B73EB0507B8
:1004D00005D3121B63EB050306434CEA010C4908E4
:1004E0004FEA300092185B4150EA0107EDD152EA21
:1004F000030012D082EA040083EA0501084305D014
:10050000101BAB4106D20122002306E000224FF06F
:10051000004302E06FF0010253101AEB06004CEBAF
:10052000085110EB0A0041EB0B01BDE8F04D00F063
:10053000CEB80EB5C10F80EAE0700844CA070021AA
:1005400040F233438DE80E000A460B4600F0CEF829
:1005500003B000BD0EB540F2334102910021CDE958
:1005600000110A460B4600F0C1F803B000BDC1F30C
:100570000A5210B5C1F3130140F2FF3341F4801168
:100580009A4201DA002010BD40F233439A42A2F2AF
:10059000334203DC524200F041F810BD904010BDE0
:1005A00000F0004230F000400AD0C10D01F560714A
:1005B000C0F3160042EA0151C208400711437047D8
:1005C00000200146704701F0004330B421F00041A3
:1005D00050EA010206D00A0DA2F56072C1F31301C0
:1005E000002A02DC30BC00207047440F44EAC104FA
:1005F000C100E01830BC00EBC25000F031B8202A36
:1006000004DB203A00FA02F1002070479140C2F169
:10061000200320FA03F3194390407047202A04DB9B
:10062000203A21FA02F00021704721FA02F3D0406B
:10063000C2F120029140084319467047202A06DB88
:10064000CB17203A41FA02F043EAE07306E041FAA0
:1006500002F3D040C2F1200291400843194670478E
:100660000029A8BF7047401C490008BF20F00100C6
:10067000704710B4B0FA80FC00FA0CF050EA0104A4
:1006800004BF10BC704749B1CCF1200421FA04F436
:1006900011FA0CF118BF012121430843A3EB0C010F
:1006A000CB1D4FEA00614FEA102042BF002010BC72
:1006B000704700EBC35010440029A4BF10BC704722
:1006C000401C490008BF20F0010010BC704710B565
:1006D000141E73F1000408DA401C41F10001921865
:1006E0005B411A4301D120F0010010BD2DE9F04D0E
:1006F00092469B4611B1B1FA81F202E0B0FA80F263
:1007000020329046FFF77BFF04460F4640EA0A007E
:1007100041EA0B0153465A46084313D0114653EAA7
:10072000010019D0C8F140025046FFF777FF054697
:100730000E46504659464246FFF761FF084305D032
:10074000012004E020463946BDE8F08D0020054335
:1007500046EAE0762C4337430A986305E40AA0EBA7
:1007600008000022FD0A44EA47540A3002D500205E
:100770000146E9E7010510196941DDE9084500195D
:100780006941BDE8F04DA2E770B521F00043034395
:100790000CD0C1F30A550024D5EB040564EB040327
:1007A000D617AD1AB34102DB0020014670BD2018F8
:1007B00041EB025170BD000030B5041E71F1000420
:1007C00004DB4FF00044404264EB0101141E73F15E
:1007D000000405DB1C464FF00043524263EB040368
:1007E000994208BF904230BD064C074D06E0E068D4
:1007F00040F0010394E8070098471034AC42F6D368
:10080000FFF7C8FC588A0008788A00082DE9F04DE7
:1008100000231A461B1A8A4103DB00200146BDE86B
:10082000F08DC1F30A52C1F3130141F480154FF06A
:10083000000BD10702D100186D41521E002704465B
:1008400040F2FF11384601EB620A3E4680460246FE
:1008500000204FF48011FFF7E1FEC2197141BB186F
:1008600046EB0100B4EB030C75EB000C04D3E41A67
:1008700065EB000517460E46241908F101006D418D
:1008800080463428E3DDF91946EB0600091BA84130
:1008900003D24FF0FF32134601E0002213461BEB58
:1008A000070046EB0A51BDE8F04DFFF710BF00000E
:1008B00000B587B00A4801900620029000200390FE
:1008C0007F200490042005900020069001A905488F
:1008D00000F0C4FC08B100F08FF907B000BD0000C3
:1008E000000180214005002070B5044600252068E5
:1008F000806800F00300012806D12068006800F03D
:10090000010008B1012000E0002080B32068806869
:1009100000F00D00012800D100E0002050B1206857
:100920008168174A1140891C816000BF032021683B
:10093000086009E0A06D40F01000A065E06D40F097
:100940000100E065012070BD01F0B0FB05460FE03D
:1009500001F0ACFB401B02280AD9A06D40F010004A
:10096000A065E06D40F00100E0650120EBE705E0E7
:100970002068806800F001000028E9D10020E2E74B
:10098000C0FFFF7F38B50446002500200090206896
:10099000806800F00300012806D12068006800F09C
:1009A000010008B1012000E00020002846D12068A5
:1009B00080682349084008B9012000E0002048B9B8
:1009C000A06D40F01000A065E06D40F00100E06512
:1009D000012038BD206804F06DFB1A4800681A49F0
:1009E000B0FBF1F000EB80004000009002E00098C6
:1009F000401E009000980028F9D101F057FB0546F1
:100A000016E02068816801F0010111B9206804F046
:100A100051FB01F04BFB401B022809D9A06D40F0AF
:100A20001000A065E06D40F00100E0650120D0E716
:100A30002068006800F001000028E2D00020C8E72C
:100A40003F0000806C00002080841E0010B52DED5A
:100A50000A8B04F0D9FB7F21354800F0A9FB08B1CF
:100A600000F0CAF8324800F0FEFF08B100F0C4F808
:100A70000A212F4800F094FF10B100F0BDF804E007
:100A80002B4800F069FE2B490880FFF711FF7F21FA
:100A9000274800F08DFB08B100F0AEF8244800F0C4
:100AA000E2FF08B100F0A8F80A21214800F078FF21
:100AB00010B100F0A1F804E01D4800F04DFE1E4901
:100AC00008801C480088FFF745FD41EC1A0B1A48C6
:100AD0000088FFF73FFD41EC1C0B9FED180B53EC1A
:100AE000102BFFF742FC41EC1B0B53EC1A2BFFF7CA
:100AF000B1FC41EC190B9FED130B53EC102BFFF7DE
:100B000034FC41EC180BFFF75EFD10490860084605
:100B100090ED000ABDEEC00A10EE100A0C490880E4
:100B20000C480A490968416000F016B810BD000081
:100B300040050020780000207A000020713D0AD78F
:100B4000A370F53F00000000000000407C00002082
:100B50008000002014010020BDEC088BBDEC02CB0E
:100B6000FFF7E4BF00BFFEE7704710B5012001F0BA
:100B70009BF910BD10B52DED068B012016490860BC
:100B8000164802F09DFD16490968164A1268881A2F
:100B9000FFF7E0FC41EC1A0B9FED130B53EC102B0D
:100BA000FFF7E3FB41EC190B9FED110B53EC102BFE
:100BB000FFF7CDFB41EC180BFFF7D9FC08490860A3
:100BC000002208460168054802F0CEFD01F038FE1B
:100BD000BDEC068B10BD0000CC280040A80500200D
:100BE0001C00002014000020FCA9F1D24D6200403E
:100BF0000000000000002E4011E04FF400414FF0D3
:100C0000904000F0A5FA80F0010422464FF4004124
:100C10004FF0904000F0C2FAC82001F029F8ECE74C
:100C20001849087F012801D0032811D100BF1649B7
:100C3000096841F40061144A11601146096821F401
:100C40000061116000BF1146096841F40071116034
:100C5000022801D0032811D100BF0B49096841F4D3
:100C60008051094A11601146096821F480511160D0
:100C700000BF1146096841F4806111600021014AFA
:100C8000117770474C0000200020024000F0010165
:100C900029B10649496941F00401044A51610349F7
:100CA000496941F48031014A516170470020024096
:100CB000084A526960F3CA02064B5A611A465269E1
:100CC00042F002025A611A46526942F480325A6175
:100CD000704700000020024010B50449496941F006
:100CE0000101024C61610260436010BD00200240BE
:100CF00070B5402204460B46084D6D6945F48025C9
:100D0000064E756172B600BF1D682560241D1B1D4F
:100D1000551EEAB2002AF7D162B670BD002002402B
:100D200070B5054601F0C2F9064608E0681C30B10E
:100D300001F0BCF9801BA84201D3032070BD1C4800
:100D4000006900F48030B0F5803FEFD018480069AA
:100D5000184900EA01041648806900F00040044385
:100D6000CCB11548406820431349486000BF04F0E7
:100D7000404030B10E48806904F0404108430C49BE
:100D8000886124F0404018B124F0404008490861CF
:100D900000BF0120D2E70648006900F0010020B141
:100DA00000BF01200249086100BF0020C6E7000023
:100DB00000200240FAC302004C00002010B500F0F1
:100DC000EBFF002010BD000030B585B005460020C7
:100DD000049000BF4FF400400B49086100BF0120A0
:100DE000019000200090284600F052F80290012067
:100DF000039004A9684600F049FF044614B101209D
:100E000005B030BD0020FBE70020024010B501F026
:100E10002DF8002010BD10B503460C46002104E05B
:100E2000501A401E205C5854491C9142F8D30020AF
:100E300010BD00002DE9F04705460E4691460024FE
:100E400000BF4FF400401149086100BF00BF18E027
:100E500028193119D0E900733A46002000F0A6FFA6
:100E600060B92819D0E900103219D2E9003259408E
:100E70005040014304D00220BDE8F0870120FBE789
:100E800008344C45E4D30020F6E70000002002407F
:100E900001460020134A12684FF6FF739A4202D1AE
:100EA0004FF4801203E00F4A12881205920A02F1F1
:100EB00000628A4203D9A1F10062D00A10E0094A17
:100EC00012684FF6FF739A4202D14FF4801203E08A
:100ED000044A12881205920A02F100628A1AD00AA4
:100EE00070470000E075FF1F10B52DED0A8B002440
:100EF000354836490860084602F089FB18B933487E
:100F000002F079FB84B2314802F01EFB204604EB6C
:100F1000D0714910A4EB410149BB2D480078FFF77F
:100F200019FB41EC190B2046FFF714FB41EC1C0B9D
:100F30009FED280B53EC102BFFF717FA41EC1B0B1E
:100F40009FED260B53EC102BFFF784FA41EC1A0BA4
:100F500053EC192BFFF709FA41EC180BFFF707FBCD
:100F600084B22048006820441E49086028E01848E0
:100F70000078FFF7EFFA41EC1A0B2046FFF7EAFA88
:100F800041EC1C0B9FED130B53EC102BFFF7EDF90D
:100F900041EC180B9FED110B53EC102BFFF75AFA95
:100FA00041EC1B0B53EC1A2BFFF7DFF941EC190B4B
:100FB000FFF7DDFA84B20B480068001B094908609E
:100FC000204600F011B810BD00080650CC050020E6
:100FD000B0000020FCA9F1D24D62004000000000EA
:100FE0000000F0401C000020BDEC088BBDEC02CBE3
:100FF000FFF7E9BF0146002001F47F420AB140F04B
:1010000008004FF2F0020A400AB140F004004CF62A
:10101000CC420A400AB140F002004AF6AA220A4035
:101020000AB140F00100704700B587B000BF3C48EE
:10103000C06C40F001003A49C8640846C06C00F03A
:101040000100019000BF00BF00BF0846C06C40F027
:101050000200C8640846C06C00F00200019000BFA6
:1010600000BF00BF0846C06C40F00400C8640846DA
:10107000C06C00F00400019000BF00BF48F2020005
:1010800002900120039000200490059002A92548B9
:1010900000F018FF41F2121002900120039000208E
:1010A0000490059002A94FF0904000F00BFF4FF420
:1010B00000600290002003900220049002A94FF0EB
:1010C000904000F0FFFE012002901748039002209C
:1010D000049002A94FF0904000F0F4FE00224FF47B
:1010E00000414FF0904000F059F8012241F2100108
:1010F0004FF0904000F052F8012211024FF0904062
:1011000000F0CEFF01220221064800F0C9FF0122B3
:1011100002214FF0904000F0C3FF07B000BD000077
:1011200000100240000400480000111070B5054690
:101130002846FFF75FFF0446044850F8240018B122
:10114000024951F82400804770BD000030020020A1
:1011500070B504460D462946204600F099FF70BD43
:101160002DE9F04781460D4616461C462846FFF7F6
:1011700041FF074674B1084840F82740284603F06D
:10118000FBFF804600223146404601F0BDFA404652
:1011900001F0AAFABDE8F0873002002070B50546DC
:1011A0000E461446E2B23146284600F079FF70BD83
:1011B0002DE9F04104460D460026002700BF94F8B3
:1011C0005400012802D10220BDE8F081012084F8FA
:1011D000540000BF2046FFF787FB064696BBA06D74
:1011E00020F4885040F00200A0652068806820F05C
:1011F00080402843216888602068806840F0004073
:101200002168886010E07F1CB7F5912F0CD3A06D8A
:1012100020F0020040F01000A06500BF002084F81C
:10122000540000BF0120CFE72068806800F0004034
:10123000B0F1004FE7D0A06D20F0020040F00100B7
:10124000A06504E0FFE7A06D40F01000A06500BFBE
:10125000002084F8540000BF3046B5E72DE9F8437C
:1012600005460C46002700200090FE49E0688842B1
:1012700000D000E000BF00BF95F85400012802D163
:101280000220BDE8F883012085F8540000BF2868DB
:1012900003F02BFF002876D1606805281AD8606813
:1012A000022806D0032807D0042808D005280DD12D
:1012B00008E00C2060600CE01220606009E018205B
:1012C000606006E04FF48070606002E006206060BD
:1012D00000BF00BF2968D4E9002000F4407C4FF42F
:1012E000407898FAA8F8B8FA88F82CFA08FC01F1C6
:1012F000300808EB8C0300F01F094FF01F0808FAB4
:1013000009F8D3F800C02CEA080C00F01F09C2F35A
:10131000846808FA09F84CEA080CC3F800C000BF5A
:101320002868806800F00C0008B1012000E000206F
:10133000002827D1A2682168286803F0E3FE6069CD
:101340002968C968C1F3C101490000FA01F62069A2
:10135000042819D028682268216900F1600C0CEB80
:101360008103DFF80483D3F800C00CEA080C02F014
:10137000F84848F0004848EA06084CEA080CC3F868
:1013800000C000BFA8E0CCE10021286803F09FFE68
:10139000C0F3120030B90021286803F098FEC0F3B2
:1013A000846007E00021286803F091FE90FAA0F025
:1013B000B0FA80F02168C1F3120119B92168C1F3B4
:1013C000846104E0216891FAA1F1B1FA81F18842C7
:1013D00004D100221146286803F0C3FE01212868C9
:1013E00003F075FEC0F3120030B90121286803F044
:1013F0006EFEC0F3846007E00121286803F067FEF9
:1014000090FAA0F0B0FA80F02168C1F3120119B986
:101410002168C1F3846104E0216891FAA1F1B1FA75
:1014200081F1884204D100220121286803F099FE4D
:101430000221286803F04BFEC0F3120030B90221EC
:10144000286803F044FEC0F3846007E002212868A6
:1014500003F03DFE90FAA0F0B0FA80F02168C1F3ED
:10146000120119B92168C1F3846104E0216891FA7D
:10147000A1F1B1FA81F1884204D100220221286849
:1014800003F06FFE0321286803F021FEC0F3120071
:1014900030B90321286803F01AFEC0F3846007E026
:1014A0000321286803F013FE90FAA0F0B0FA80F050
:1014B0002168C1F3120119B92168C1F3846104E004
:1014C000216891FAA1F1B1FA81F1884204D1002298
:1014D0000321286803F045FE2868806800F00300B7
:1014E000012806D12868006800F0010008B1012039
:1014F00000E0002000287CD12868E2682168D0F84C
:10150000B030C1F3120C23EA0C03C1F3120C02F049
:101510002009DFF8588108FA09F80CEA080C43EAB8
:101520000C03C0F8B03000BF4E49E068884260D17B
:101530002368C3F312031BB92368C3F3846304E075
:10154000236893FAA3F3B3FA83F35B1C092B38D80F
:101550002368C3F312031BB92368C3F3846304E055
:10156000236893FAA3F3B3FA83F35B1C4FF0010CE7
:101570000CFA03FC2368C3F312031BB92368C3F3FB
:10158000846304E0236893FAA3F3B3FA83F35B1C48
:101590004CEA836C2368C3F312031BB92368C3F3BB
:1015A000846304E0236893FAA3F3B3FA83F35B1C28
:1015B00003EB43034FF0000848EA03534CEA0303EC
:1015C00039E02368C3F312031BB92368C3F38463B0
:1015D00004E0236893FAA3F3B3FA83F35B1C4FF0A0
:1015E000010C0CFA03FC2368C3F312032BB9236824
:1015F00000E025E0C3F3846304E0236893FAA3F3D7
:10160000B3FA83F35B1C4CEA836C2368C3F31203C5
:101610001BB92368C3F3846304E0236893FAA3F33C
:10162000B3FA83F3093B03EB43034FF0007848EA36
:1016300003534CEA03031946A268286803F062FDCD
:101640000B492068884205D10A4803F03BFD00F4AD
:10165000000000B308492068884212D1054803F011
:1016600031FD0BE000007F4000F0FF03FFFF0700AB
:10167000000052C700030450000084CB00F08070CB
:1016800048B12E492068884250D12D4803F01AFDF8
:1016900000F4800000BB2B49206888421DD12A49F4
:1016A0002868884242D1264803F00CFD40F4000827
:1016B0004146234803F04FFD244800682449B0FB0D
:1016C000F1F0C0EB0010C000009002E00098401E56
:1016D000009000980028F9D128E01E49206888422F
:1016E0000DD119492868884220D1154803F0EAFC39
:1016F00040F080784146124803F02DFD16E00F4976
:101700002068884212D11049286888420ED10C48BE
:1017100003F0D8FC40F480084146094803F01BFD63
:1017200004E0A86D40F02000A865012700BF00205C
:1017300085F8540000BF3846A3E500000100008092
:1017400000030450000052C7000004506C00002049
:1017500080841E00000084CB01460868006C70473E
:10176000F8B5044600260025002000900CB90120A1
:10177000F8BD206918B1606A012800D100BFA06DD2
:1017800030B9204600F0E6F80020E06584F8540007
:1017900020688168C1F3407131B120688168674A6F
:1017A0001140816000BF00BF206803F099FCB8B908
:1017B00020688168624A114041F08051816000BF19
:1017C000604800686049B0FBF1F000EB8000400029
:1017D000009002E00098401E009000980028F9D187
:1017E000206803F07DFC40B9A06D40F01000A065BA
:1017F000E06D40F00100E0650126A06D00F01000F2
:10180000002872D1206803F070FC0028F9D1A06D87
:1018100020F4807040F00200A0652068806800F02D
:101820000300012806D12068006800F0010008B11B
:10183000012000E0002050B900BF6068434989687A
:1018400021F47C110143414A916000BF00BFA16BAC
:10185000E06941EA4030E1680843A1680843A18C8F
:1018600040EA0145606A012803D1208D401E45EA07
:101870004045E06A28B1A08D00F47070216B0843E8
:1018800005432068C0683249084028432168C86081
:101890002068806800F00C0008B1012000E0002002
:1018A00010BB0021A06941EA8031606B41EA40052C
:1018B0002068C06844F20201884328432168C86058
:1018C000E06B012812D1206C40F00101606C0843EC
:1018D000A16C0843E16C08432168096940F2FC727D
:1018E000914308432168086106E01FE02068006911
:1018F00020F00100216808612069012809D12068D1
:10190000006B20F00F00216A491E0843216808631C
:1019100005E02068006B20F00F0021680863A06DCF
:1019200020F0020040F00100A06504E0A06D40F04E
:101930001000A065012630461AE70000C0FFFF5FD7
:10194000C0FFFF7F6C00002080841E000003045055
:1019500007C0F0FF10B586B004460F4920688842E2
:1019600018D100BF0D48C06C40F400500B49C8644A
:101970000846C06C00F40050009000BF00BF082073
:1019800001900B2002900020039001A94FF090409D
:1019900000F098FA06B010BD00000450001002409C
:1019A0002DE9F04104460D4600270026B046606947
:1019B000082801D108260CE02068C06800F001006A
:1019C00030B1A06D40F02000A0650120BDE8F0819D
:1019D000042600F06BFB074612E0681C80B125B1BD
:1019E00000F064FBC01BA8420AD9A06D40F00400BF
:1019F000A06500BF002084F8540000BF0320E5E785
:101A00002068006830400028E7D0A06D40F40070E6
:101A1000A0652068C06800F4406098B9E06988B9A2
:101A20002068006800F0080008280BD1A06D20F4A1
:101A30008070A065A06D00F4805018B9A06D40F0D2
:101A40000100A0652068D0F80C80082E03D1082082
:101A50002168086005E008F4804010B90C20216876
:101A600008600020B2E770B504460025206803F046
:101A70003CFB002844D100BF94F85400012801D158
:101A8000022070BD012084F8540000BF2046FEF7FC
:101A900079FF054675BBA06D40F60161884340F4AF
:101AA0008070A065A06D20F48010A065A06D00F48A
:101AB0008050B0F5805F04D1E06D20F00600E06555
:101AC00001E00020E0651C202168086000BF0020C4
:101AD00084F8540000BF2068C06800F0007028B18E
:101AE000A06D20F4005040F48050A065206803F001
:101AF00001FB06E0FFE700BF002084F8540000E08F
:101B000002252846BDE770B50446002594F8250057
:101B1000022803D00420E063012520E0206800684B
:101B200020F00E00216808602068006820F00100A5
:101B30002168086094F8440000F01C0101208840EE
:101B4000216C4860012084F8250000BF002084F843
:101B5000240000BFA06B10B12046A16B8847284627
:101B600070BD000010B5014609B9012010BD3E4B03
:101B7000086898420BD23D4B0868C01A1423B0FB8A
:101B8000F3F0800048643948083808640AE0364BAE
:101B90000868C01A1423B0FBF3F080004864324890
:101BA00008380864022081F825000868026847F6B2
:101BB000F0708243D1E9020318430B6918434B6963
:101BC00018438B691843CB6918430B6A18430243C7
:101BD000086802608868B0F5804F3AD0234B083B14
:101BE000086C98421BD1D0F8A80091F8443003F05B
:101BF0001C040F23A34098431C4BA033186091F89A
:101C0000443003F01C0348689840184B083BD3F855
:101C1000A8301843154B083BC3F8A80019E0124838
:101C2000A030006891F8443003F01C040F23A34057
:101C300098430D4BA033186091F8443003F01C0317
:101C400048689840084BA0331B681843064BA033E4
:101C500018600020C863012081F82500002081F869
:101C6000240000BF82E70000080402400800024090
:101C700070B50446002500F019FA054600BF00F0D3
:101C800015FA401BA042FAD370BD00002DE9F041C7
:101C900004460F4600BF3E480078012802D10220CA
:101CA000BDE8F08101203A49087000BF4CF2503085
:101CB000FFF736F80646002E63D1354948603548AF
:101CC000006800F40070B8B13248006820F4007079
:101CD000304908600846006800F4806040B108465A
:101CE000006820F48060086003202949087715E027
:101CF00001202749087711E02648006800F4806039
:101D000048B12448006820F480602249086002201D
:101D10001F49087702E000201D4908772068012844
:101D20000ED16068FEF7B2FF4CF25030FEF7F8FFBC
:101D300006461848406920F00400164948611EE034
:101D40004FF0FF303860A56813E028466168FEF761
:101D5000AFFF4CF25030FEF7E3FF06460D484069F6
:101D600040F2FA7188430B4948610EB13D6005E0CD
:101D70006D1CD4E902010844A842E6D800BFFEF772
:101D80004FFF00BF00200249087000BF304687E7C0
:101D90004C000020002002400348406940F0004011
:101DA0000149486100207047002002402DE9F047BA
:101DB0000446884615461E464FF0000900BF2948D4
:101DC0000078012802D10220BDE8F08701202549D2
:101DD000087000BF4CF25030FEF7A2FF0746002FFC
:101DE00038D1204948602048006800F4806048B13C
:101DF0001D48006820F480601B49086002201949D2
:101E0000087702E00020174908773CB92A46334694
:101E10004046FEF761FF4FF001090BE0012C01D0B5
:101E2000022C07D129464046FEF762FF022C01D161
:101E30004FF480294CF25030FEF772FF0746B9F19B
:101E4000000F05D00848406920EA090006494861AA
:101E5000FEF7E6FE00BF00200249087000BF3846CA
:101E6000B2E700004C00002000200240002008499A
:101E7000496901F0004151B10649054A916006499E
:101E800091601146496901F0004101B1012070479C
:101E90000020024023016745AB89EFCD10B5044611
:101EA0002046FFF743F910BD10B50446044800680A
:101EB000204020B1024804602046FFF7EFFF10BD2C
:101EC0001404014078B50346002200240020CBE032
:101ED000012696400D6805EA0604002C72D04D6874
:101EE000022D02D04D68122D13D1D60803F1200522
:101EF00055F826005507EE0E0F25B540A8435607A6
:101F0000F60E0D69B5402843D60803F1200545F8C3
:101F10002600186856000325B540A8430D7905F042
:101F200003055600B540284318604D68012D08D0C0
:101F30004D68022D05D04D68112D02D04D68122D2F
:101F400013D1986856000325B540A8435600CD68C4
:101F5000B54028439860586801259540A8430D79FD
:101F6000C5F30015954028435860D86856000325EE
:101F7000B540A84356008D68B5402843D8604D68E9
:101F800005F08055B5F1805F6DD100BF394D2D6EE4
:101F900045F00105374E356635462D6E05F00105D5
:101FA000009500BF00BF4FEAB635960855F82600E9
:101FB00095072E0F0F25B540A843B3F1904F02D1DE
:101FC000002515E04FE02C4DAB4201D101250FE07B
:101FD0002A4DAB4201D102250AE0294DAB4201D185
:101FE000032505E0274DAB4201D1042500E007257C
:101FF0009607360FB5402843234D960845F826002E
:10200000224D2868A0434D6805F48035B5F5803F22
:1020100000D120431D4D28602D1D2868A0434D6828
:1020200005F40035B5F5003F00D12043174D2D1DB7
:1020300028602D1D2868A0434D6805F48015B5F56E
:10204000801F00D12043114D083528602D1D2868C0
:10205000A0434D6805F40015B5F5001F00D12043DD
:102060000A4D0C352860521C0D68D540002D7FF4B8
:102070002FAF78BD0010024000040048000800485F
:10208000000C004800100048080001400004014016
:10209000024613690B400BB1012000E0002070479D
:1020A0000AB1816100E08162704700000148006868
:1020B0007047000048000020024692F841002028A6
:1020C0002DD100BF92F84000012801D102207047B5
:1020D000012082F8400000BF242082F841001068EF
:1020E000006820F00100136818601068006820F490
:1020F00080501368186010680068084313681860FF
:102100001068006840F0010013681860202082F811
:10211000410000BF002082F8400000BFD7E7022046
:10212000D5E710B502460B4692F8410020282AD187
:1021300000BF92F84000012801D1022010BD01200B
:1021400082F8400000BF242082F841001068006837
:1021500020F00100146820601068016821F47061AB
:1021600041EA0321106801601068006840F0010036
:1021700014682060202082F8410000BF002082F80F
:10218000400000BFDAE70220D8E7000010B504469F
:1021900024B94FF400706064012010BD94F8410030
:1021A00028B9002084F84000204600F0B7F9242028
:1021B00084F841002068006820F001002168086070
:1021C000606820F07060216808612068806820F4F1
:1021D000004021688860E068012805D1A06840F4CB
:1021E00000402168886004E0A06840F40440216851
:1021F0008860E068022802D1800221684860206877
:10220000406814490843216848602068C06820F489
:1022100000402168C860D4E904010843A16940EA8C
:1022200001202168C860D4E90701084321680860DB
:102230002068006840F001002168086000206064A8
:10224000202084F841000020206384F8420000BF71
:10225000A3E70000008000022DE9F8430446894608
:1022600016461F46DDF8208094F84100202873D1DF
:1022700000BF94F84000012802D10220BDE8F88395
:10228000012084F8400000BFFFF710FF0546192326
:102290000122D1032046009502F034FE08B101204E
:1022A000ECE7222084F84100102084F8420000204E
:1022B0006064666267856063608DFF280CD9FF20CB
:1022C00020853C48009094F828204FF080734946C0
:1022D000204602F0FDFD0BE0608D20853548009022
:1022E00094F828204FF000734946204602F0F0FD94
:1022F0003FE02A464146204602F034FE08B1012064
:10230000BCE72068406AC1B2626A501C606211700A
:10231000208D401E2085608D401E6085608D40B3FD
:10232000208D30BB4346002280212046009502F0DC
:10233000E9FD08B10120A1E7608DFF280DD9FF203C
:1023400020850020009094F828204FF080734946A3
:10235000204602F0BDFD0CE02AE0608D20850020C3
:10236000009094F828204FF000734946204602F070
:10237000AFFD608D0028BCD12A464146204602F0C0
:1023800041FE08B1012079E720202168C86120685A
:1023900040680949084021684860202084F84100CD
:1023A000002084F8420000BF84F8400000BF65E7C9
:1023B000022063E70024008000E800FE2DE9F843D6
:1023C0000446894616461F46DDF8208094F84100F1
:1023D000202870D100BF94F84000012802D10220CB
:1023E000BDE8F883012084F8400000BFFFF75EFEDF
:1023F000054619230122D1032046009502F082FDF3
:1024000008B10120ECE7212084F84100102084F875
:10241000420000206064666267856063608DFF280B
:102420000BD9FF2020853B48009094F82820C30258
:102430004946204602F04CFD0AE0608D2085354873
:10244000009094F8282003034946204602F040FDFE
:102450003EE02A464146204602F0FFFD08B1012039
:10246000BEE7616A481C6062087821688862608DF6
:10247000401E6085208D401E2085608D40B3208DDC
:1024800030BB4346002280212046009502F03AFDF1
:1024900008B10120A4E7608DFF280DD9FF20208519
:1024A0000020009094F828204FF080734946204681
:1024B00002F00EFD0CE02AE0608D208500200090E7
:1024C00094F828204FF000734946204602F000FDA2
:1024D000608D0028BDD12A464146204602F092FD7B
:1024E00008B101207CE720202168C861206840688D
:1024F0000949084021684860202084F841000020F4
:1025000084F8420000BF84F8400000BF68E7022062
:1025100066E700000020008000E800FE10B586B0ED
:102520000446142101A8FDF766FE19492068884277
:102530002BD100BF1748C06C40F001001549C8649A
:102540000846C06C00F00100009000BF00BF4FF4CF
:10255000C06001901220029001200390032004909B
:102560000420059001A94FF09040FFF7ABFC00BF9D
:102570000848806D40F40010064988650846806D63
:1025800000F40010009000BF00BF06B010BD0000B6
:10259000005400400010024070B504460CB9012000
:1025A00070BD4CF6CC402168086045F2555021685A
:1025B0000860D4E9001048602168A0688860FFF7CF
:1025C00075FD054606E0FFF771FD401B302801D977
:1025D0000320E5E72068C0680028F4D1206801697D
:1025E000E068814203D02168E068086103E04AF6B0
:1025F000AA20216808600020D2E701464AF6AA20F6
:102600000A6810600020704702480068401C0149B9
:10261000086070474800002010B5032000F0B6F8AD
:10262000002000F005F800F017F8002010BD0000B1
:1026300070B50446074800684FF47A71B0FBF1F5B5
:10264000284601F073FD00222146501E00F05CF880
:10265000002070BD6C00002008B500BF2148006E4E
:1026600040F001001F4908660846006E00F00100B6
:10267000009000BF00BF00BF0846806D40F0805052
:1026800088650846806D00F08050009000BF00BF54
:10269000032000F07BF8002211466FF00B0000F0E1
:1026A00033F8002211466FF00A0000F02DF80022E6
:1026B00011466FF0090000F027F800221146501F64
:1026C00000F022F800221146101F00F01DF8002231
:1026D0001146901E00F018F800221146501E00F01E
:1026E00013F808BD0010024001460846002809DB27
:1026F00000F01F0301229A4043099B0003F1E023ED
:10270000C3F8002100BF70472DE9F05F80460D46F9
:102710001646002704F0A8FF074639462A463346E6
:1027200001F00700C0F1070ABAF1040F02D94FF017
:10273000040A01E0C0F1070AD14600F1040ABAF127
:10274000070F02D24FF0000A01E0A0F1030AD446BD
:102750004FF0010A0AFA09FAAAF1010A0AEA020A82
:102760000AFA0CFA4FF0010B0BFA0CFBABF1010B60
:102770000BEA030B4AEA0B042146404604F07CFFB7
:1027800000F000B830BCBDE8C09F000000BF00F002
:102790000702064B19684FF6FF031940044B0B4321
:1027A00043EA0221014B196000BF70470CED00E0C5
:1027B0000000FA0502460021B2F5007F29D11D482C
:1027C000006800F4C060B0F5007F31D0194800689F
:1027D00020F4C06040F40070164B18601648006882
:1027E000164BB0FBF3F0322300FB03F100E0491E6F
:1027F00031B11048406900F48060B0F5806FF6D0C8
:102800000C48406900F48060B0F5806F10D103205F
:1028100070470848006800F4C060B0F5806F07D0CA
:102820000448006820F4C06040F48060014B1860E8
:102830000020EDE7007000406C00002040420F00D7
:102840000848006820F00700001D06490860064897
:10285000006840F004000449086000BF00BF30BFBA
:10286000704700000070004010ED00E00248006872
:1028700000F4C0607047000000700040034800682A
:1028800040F480700149086070470000007000400B
:102890000348006840F004000149086070470000E8
:1028A000001002402DE9F8430446002600270025C9
:1028B000A846208800F40060B0F5006F26D1606C57
:1028C00068B1B0F5000F03D0B0F5400F0ED10CE0A9
:1028D000D448C06840F48030D249C86008E0002184
:1028E000201D02F0C9FD054602E001E0012500BF00
:1028F00000BF55B9CB488830006820F44000616CB7
:102900000843C849C1F8880000E0A846206800F4E0
:102910000030B0F5003F74D14FF00009C148806D20
:1029200000F0805078B900BFBE48806D40F0805004
:10293000BC4988650846806D00F08050009000BF5B
:1029400000BF4FF00109B848006840F48070B649F4
:102950000860FFF7ABFB074606E0FFF7A7FBC01BCD
:10296000022801D9032505E0AF48006800F4807013
:102970000028F2D000BF7DBBAA489030006800F468
:102980004076CEB1A06DB04216D0A6489030006817
:1029900020F44076A348D0F8900040F48030A1495C
:1029A000C1F890000846D0F8900020F48030C1F8BB
:1029B00090000846C0F8906006F00100A8B1FFF74B
:1029C00075FB074609E0FFF771FBC01B41F2883138
:1029D000884202D9032507E016E09248903000684B
:1029E00000F002000028EED000BF5DB98D489030A5
:1029F000006820F44070A16D08438A49C1F8900036
:102A000003E00CE0A84600E0A846B9F1010F05D1AB
:102A10008448806D20F080508249886500BF20780E
:102A200000F0010048B17F488830006820F00300C2
:102A3000216A08437B49C1F88800207800F0020031
:102A4000022809D177488830006820F00C00616ABC
:102A500008437449C1F88800207800F00400042875
:102A600009D170488830006820F03000A16A08431E
:102A70006C49C1F88800207800F02000202809D196
:102A800068488830006820F44060E16A084365497E
:102A9000C1F88800208800F40070B0F5007F09D1EB
:102AA00060488830006820F44020E16B08435D49AD
:102AB000C1F88800208800F48060B0F5806F09D1EB
:102AC00058488830006820F44010216C084355496C
:102AD000C1F88800207800F04000402809D1514812
:102AE0008830006820F44050216B08434D49C1F8FC
:102AF0008800207800F08000802809D1494888307B
:102B0000006820F44040616B08434649C1F88800E2
:102B1000208800F48070B0F5807F09D1414888306A
:102B2000006820F44030A16B08433E49C1F888009A
:102B3000206800F40020B0F5002F1FD139488830FC
:102B4000006820F04060A16C084336498831086075
:102B5000A06CB0F1006F06D13248C06840F480101C
:102B60003049C8600AE0A06CB0F1806F06D1012145
:102B7000201D02F081FC054605B1A846206800F43E
:102B80008020B0F5802F1FD126488830006820F0C3
:102B90004060E16C0843234988310860E06CB0F183
:102BA000006F06D11F48C06840F480101D49C860FE
:102BB0000AE0E06CB0F1806F06D10121201D02F027
:102BC0005BFC054605B1A846208800F48040B0F5BE
:102BD000804F14D113488830006820F04050216D98
:102BE0000843104988310860206DB0F1805F06D13C
:102BF0000221201D02F040FC054605B1A8462088B0
:102C000000F40040B0F5004F09D106488830006854
:102C100020F08040616D08430249C1F888004046B9
:102C2000BDE8F883001002400070004070B5044613
:102C30000D460CB9012070BD5348006800F0070034
:102C4000A8420ED25048006820F0070028434E49A1
:102C500008600846006800F00700A84201D0012083
:102C6000E9E7207800F00100002840D060680328E0
:102C700006D14648006800F00070D8B90120DAE7B4
:102C80006068022806D14148006800F4003088B925
:102C90000120D0E7606830B93C48006800F00200CD
:102CA00040B90120C7E73948006800F4806008B9DE
:102CB0000120C0E73548806820F0030061680843C0
:102CC00032498860FFF7F2F9064608E0FFF7EEF9AF
:102CD000801B41F28831884201D90320ABE72B48A1
:102CE000806800F00C006168B0EB810FEED12078B5
:102CF00000F00200022807D12448806820F0F0008C
:102D0000A1680843214988601F48006800F0070057
:102D1000A8420ED91C48006820F0070028431A4931
:102D200008600846006800F00700A84201D00120B2
:102D300081E7207800F00400042807D11348806858
:102D400020F4E060E168084310498860207800F0D2
:102D50000800082808D10D48806820F460502169D7
:102D600040EAC1000949886000F01CF807498968F9
:102D7000C1F30311064A515CC840064908600020AF
:102D8000FFF756FC002056E70020024000100240EA
:102D9000008600086C0000200148006870470000B1
:102DA0006C000020F0B5002100230024022502223F
:102DB00000203B4EB66806F00C065EB1384EB66891
:102DC00006F00C060C2E1ED1354EF66806F00306F2
:102DD000012E18D1324E366806F008062EB9304E54
:102DE00094363668C6F3032103E02D4E3668C6F3E9
:102DF00003112C4E56F82110294EB66806F00C0629
:102E000086B908460EE0264EB66806F00C06042E7B
:102E100001D1254806E0224EB66806F00C06082EC1
:102E200000D122481E4EB66806F00C060C2E36D194
:102E30001B4EF66806F00304194EF668C6F3021638
:102E4000721C012C19D0022C02D0032C14D109E0E1
:102E5000154EB6FBF2F6124FFF68C7F3062706FBC6
:102E600007F313E0114EB6FBF2F60D4FFF68C7F300
:102E7000062706FB07F309E000BFB1FBF2F6084F97
:102E8000FF68C7F3062706FB07F300BF00BF044E29
:102E9000F668C6F34166761C7500B3FBF5F0F0BD2D
:102EA00000100240188600080024F40000127A0086
:102EB000F8B504460CB90120F8BD207800F01000E8
:102EC00010286ED1F848806800F00C00002869D105
:102ED000F548006800F0020018B1A06908B90120A7
:102EE000EAE7F148216A006800F0080020B1EE48E6
:102EF000006800F0F00005E0EB489430006800F452
:102F00007060000981421FD9206A02F07BFB08B182
:102F10000120D1E700BFE448006840F00800E24922
:102F200008600846006820F0F000216A0843DE4986
:102F3000086000BF0846406820F47F40E16940EA2D
:102F40000120D94948601EE000BFD748006840F022
:102F50000800D54908600846006820F0F000216AA2
:102F60000843D149086000BF0846406820F47F400C
:102F7000E16940EA0120CC494860206A02F042FB46
:102F800008B1012098E7FFF70DFFC7498968C1F331
:102F90000311C64A515CC840C54908600020FFF7CC
:102FA00047FB4AE0A06980B3BF48006840F00100D9
:102FB000BD490860FFF77AF8054606E0FFF776F8A6
:102FC000401B022801D9032076E7B748006800F0CB
:102FD00002000028F2D000BFB348006840F00800AB
:102FE000B14908600846006820F0F000216A0843F3
:102FF000AD49086000BF0846406820F47F40E169A1
:1030000040EA0120A849486017E0FFE7A6480068A9
:1030100020F00100A4490860FFF748F8054606E0E3
:10302000FFF744F8401B022801D9032044E79E48DB
:10303000006800F002000028F2D1207800F00100C2
:10304000002868D09848806800F00C0008280BD051
:103050009548806800F00C000C280ED19248C0689A
:1030600000F00300032808D18F48006800F4003006
:1030700088B3606878BB01201EE700BF6068B0F5C8
:10308000803F06D18848006840F480308649086057
:103090001AE06068B0F5A02F0BD18348006840F4B7
:1030A0008020814908600846006840F4803008604C
:1030B0000AE07D48006820F480307B4908600846BB
:1030C000006820F48020086000BF606890B1FEF7BF
:1030D000EDFF054607E01EE0FEF7E8FF401B642811
:1030E00001D90320E8E67048006800F400300028A9
:1030F000F2D010E0FEF7DAFF054606E0FEF7D6FF55
:10310000401B642801D90320D6E66748006800F414
:1031100000300028F2D1207800F0020002285ED1B1
:103120006148806800F00C0004280BD05E4880687D
:1031300000F00C000C2818D15B48C06800F00300B8
:10314000022812D15848006800F4806018B1E06885
:1031500008B90120B0E65448406820F0F850217CBE
:1031600040EA01605049486039E0E06800B34E48E9
:10317000006840F480704C490860FEF797FF0546F0
:1031800006E0FEF793FF401B022801D9032093E6D7
:103190004548006800F480600028F2D0424840684A
:1031A00020F0F850217C40EA01603F49486016E079
:1031B0003D48006820F480703B490860FEF776FFC8
:1031C000054606E0FEF772FF401B022801D90320E6
:1031D00072E63548006800F480600028F2D120785B
:1031E00000F00800082836D16069D0B12E4894302C
:1031F000006840F001002C49C1F89400FEF756FF2A
:10320000054606E0FEF752FF401B022801D90320C5
:1032100052E625489430006800F002000028F1D002
:1032200019E021489430006820F001001E49C1F8DF
:103230009400FEF73BFF054606E0FEF737FF401B14
:10324000022801D9032037E617489430006800F0BF
:1032500002000028F1D1207800F0040004286ED18B
:1032600000261148806D00F0805070B900BF0E48F4
:10327000806D40F080500C4988650846806D00F0F4
:103280008050009000BF00BF01260A48006800F48B
:103290008070F0B90748006840F480700549086004
:1032A000FEF704FF05460EE000100240008600080D
:1032B0006C00002000700040FEF7F8FE401B022862
:1032C00001D90320F8E59D48006800F480700028CB
:1032D000F2D000BFA068012808D19948006840F0EA
:1032E000010097499039C1F8900021E0A0680528B5
:1032F0000FD19348006840F0040091499039C1F81B
:1033000090000846D0F8900040F00100C1F890000D
:103310000EE08B48006820F0010089499039C1F81F
:1033200090000846D0F8900020F00400C1F890000A
:1033300000BFA068A0B1FEF7B9FE054609E02DE088
:10334000FEF7B4FE401B41F28831884201D90320C8
:10335000B2E57B48006800F002000028F0D012E0DF
:10336000FEF7A4FE054608E0FEF7A0FE401B41F272
:103370008831884201D903209EE57148006800F039
:1033800002000028F0D1012E07D16D489038806DE1
:1033900020F080506A499039886500BF207800F09D
:1033A0002000202838D1606AD8B16548083000680C
:1033B00040F0010062499039C1F89800FEF776FEAE
:1033C000054606E0FEF772FE401B022801D90320E5
:1033D00072E55B480830006800F002000028F1D078
:1033E0001AE057480830006820F00100544990392D
:1033F000C1F89800FEF75AFE054606E0FEF756FEB5
:10340000401B022801D9032056E54D4808300068CA
:1034100000F002000028F1D1A06AE8B348489038D3
:10342000806800F00C000C2874D0A06A022853D1E8
:1034300043489038006820F0807041499039086016
:10344000FEF734FE054606E0FEF730FE401B02287C
:1034500001D9032030E53A489038006800F0007048
:103460000028F1D1206B401E0101606B41EA002071
:10347000E16A0843A18F0122C2EB510140EA4151A8
:103480004020005DC2EB500041EA40613820005D01
:1034900041EAC0602A4900E04EE09039C860084621
:1034A000006840F0807008600846C06840F0807096
:1034B000C860FEF7FBFD054606E0FEF7F7FD401B82
:1034C000022801D90320F7E41D489038006800F075
:1034D00000700028F1D02FE019489038006820F0E3
:1034E00080701749903908600846006800F0006055
:1034F00020B90846C06820F00300C8601048903822
:10350000C068104908400E499039C860FEF7CEFDEA
:10351000054607E00EE0FEF7C9FD401B022801D971
:103520000320C9E406489038006800F000700028C5
:10353000F1D101E00120BFE40020BDE400700040B3
:1035400090100240FFFFEEFE10B504460CB90120BA
:1035500010BD2068006820F00C0021680860206819
:10356000406820F0600021684860204600F06AF85A
:1035700000206071A06000BF207100BF00BFE7E7BE
:103580002DE9F04104460D460026002700BF2079B2
:10359000012802D10220BDE8F0810120207100BF86
:1035A0006079012820D102206071FEF77FFD064678
:1035B0000CE0FEF77BFD801B022807D90420607118
:1035C00000BF0020207100BF0320E4E720684068AE
:1035D00000F001000028ECD020688068E060E0681E
:1035E00028600120607100E0012700BF00202071E9
:1035F00000BF3846CFE710B5044604F10C01204661
:10360000FFF7BEFF08B9E06810BD0020FCE710B569
:1036100004460CB9012010BD607920B9002020714A
:10362000204600F01DF8022060712068006840F01C
:10363000040021680860012060710020A06000BFC4
:10364000E9E700000549C96A41F48021034AD162D3
:103650001146C96A21F48021D162704700100240EE
:1036600010B598B004464FF4802001904FF04060B0
:10367000149001A8FFF716F900BF0748C06C40F48A
:1036800080200549C8640846C06C00F48020009082
:1036900000BF00BF18B010BD00100240024600235A
:1036A000106800F1500303EB81031868704710B5F0
:1036B0000023046804F1500303EB81031A6010BD7A
:1036C00070B50446002500BF94F82000012801D100
:1036D000022070BD012084F8200000BF022084F881
:1036E000210000BFCA202168486253202168486237
:1036F00000BF2068806820F48060216888602068AE
:10370000806820F4804021688860FEF7CFFC054681
:1037100014E0FEF7CBFC401BB0F57A7F0ED900BF5A
:10372000FF202168486200BF032084F8210000BF09
:10373000002084F8200000BF0320CAE72068C0688A
:10374000C0F380000028E4D000BFFF202168486259
:1037500000BF012084F8210000BF002084F8200071
:1037600000BF00BFB5E700002DE9F04104460D465B
:103770001646002700BF94F82000012802D102203D
:10378000BDE8F081012084F8200000BF022084F809
:10379000210000BFCA202168486253202168486286
:1037A00000BF2068806800F48060F0B1FEF77EFC06
:1037B000074614E0FEF77AFCC01BB0F57A7F0ED9FD
:1037C00000BFFF202168486200BF032084F8210069
:1037D00000BF002084F8200000BF0320D0E720684D
:1037E000C068C0F380000028E4D12068806820F41D
:1037F0008060216888602068C06800F0800060F404
:1038000090602168C860FEF751FC074614E0FEF79F
:103810004DFCC01BB0F57A7F0ED900BFFF20216898
:10382000486200BF032084F8210000BF002084F814
:10383000200000BF0320A3E72068C068C0F3800019
:103840000028E4D0206845612068806820F00700E7
:103850002168886020688068304321688860144847
:10386000006840F480101249086011480830006870
:1038700040F480100E49083108602068806840F4E8
:103880008040216888602068806840F480602168FA
:10389000886000BFFF202168486200BF012084F8D3
:1038A000210000BF002084F8200000BF00BF67E7B0
:1038B000000401407047000010B504464FF480102A
:1038C0000A4908602068C068C0F3802050B12068B1
:1038D000C06800F0800060F490602168C8602046F5
:1038E000FFF7E8FF012084F8210010BD1404014017
:1038F00010B504460CB9012010BD94F8210028B978
:10390000002084F82000204600F066F8022084F8A9
:10391000210000BFCA202168486253202168486204
:1039200000BF204601F0D8FE48B100BFFF2021684B
:10393000486200BF042084F821000120DCE72068F1
:1039400080682449084021688860216960680843CC
:10395000A169084321688968084321688860216853
:10396000E068086120680169208941EA0040216817
:1039700008612068C06820F080002168C860206865
:10398000806800F0200068B9204600F053F848B184
:1039900000BFFF202168486200BF042084F8210096
:1039A0000120A9E72068C06C20F003002168C864EA
:1039B0006169E06908432168C96C08432168C864EB
:1039C00000BFFF202168486200BF012084F8210069
:1039D000002091E7BFFF8FFF10B5A8B00446042078
:1039E0001790002021900120199017A8FFF760FA86
:1039F00008B100BFFEE74FF400300090401216906F
:103A00006846FEF74FFF08B100BFFEE708480068B0
:103A100040F4004006499039C1F890000022114658
:103A20000320FEF771FE0320FEF75EFE28B010BDF6
:103A30009010024070B5044600252068C06820F050
:103A4000A0002168C860FEF731FB054607E0FEF7DD
:103A50002DFB401BB0F57A7F01D9032070BD206893
:103A6000C06800F020000028F1D00020F6E708B57B
:103A70000146002209E0501CC2B20868C0680090EC
:103A800000BF042A01D1032008BD0868806800F443
:103A9000C0600028EFD100BFF6E770B504460CB94E
:103AA000012070BD606A00B900BF0021A16294F8D6
:103AB0005D0028B9002084F85C00204600F04EF834
:103AC000022084F85D002068006820F04000216832
:103AD0000860E068B0F5E06F01D9002501E04FF41F
:103AE0008055E068B0F5706F05D0E068B0F5E06F24
:103AF00001D00021A162206B40B9E068B0F5E06F11
:103B000002D90221216301E001212163D4E90101ED
:103B100008432169084361690843218B01F400715E
:103B20000843E1690843216A0843A16A0843216800
:103B300008600421A06901EA1040616A0843616BD2
:103B40000843E16808432843216848600020206654
:103B5000012084F85D000020A3E7000010B586B0C6
:103B600004464949206888427DD100BF4748006E1D
:103B700040F48050454908660846006E00F48050C5
:103B8000009000BF00BF00BF0846806C40F00100FD
:103B900088640846806C00F00100009000BF00BF00
:103BA00000BF0846C06C40F00100C8640846C06C05
:103BB00000F00100009000BF00BF20200190022013
:103BC00002900390032004900520059001A94FF076
:103BD0009040FEF777F9402001900520059001A95B
:103BE0004FF09040FEF76EF980200190052005907F
:103BF00001A94FF09040FEF765F925482549086076
:103C0000012048601021234881600021C16080218B
:103C10000161002141618161C1610162FDF7A2FF83
:103C200000BF1C486065846200BF194814381A49F7
:103C3000086001204860002117488160C160802130
:103C40000161002141618161C1614FF40051016254
:103C5000FDF788FF00BF1048A065846200BF012205
:103C600011460D2000E00CE0FEF74EFD0D20FEF7A2
:103C70003BFD002201210C20FEF746FD0C20FEF743
:103C800033FD06B010BD00000030014000100240BE
:103C900030000240540100209C0100202DE9F8432F
:103CA00004460D4617461E464FF00008C14600BFA9
:103CB00094F85C00012802D10220BDE8F8830120BD
:103CC00084F85C0000BFFEF7F1F9804694F85D00CF
:103CD000012802D04FF00209B2E005B117B94FF048
:103CE0000109ADE0032084F85D0000202066A56393
:103CF000A787E7872064A4F84400A4F8460020655D
:103D0000E064A068B0F5004F05D12068006840F479
:103D10008040216808602068006800F0400040286A
:103D200005D02068006840F0400021680860E06825
:103D3000B0F5E06F2AD9606810B1E08F012806D194
:103D400028882168C860AD1CE08F401EE08719E01C
:103D50002068806800F00200022807D128882168C6
:103D6000C860AD1CE08F401EE0870BE03EB1701CC8
:103D700040B1FEF79BF9A0EB0800B04202D34FF030
:103D800003095DE0E08F0028E2D13FE0606810B1F8
:103D9000E08F012811D1E08F012807D928882168F8
:103DA000C860AD1CE08F801EE08706E015F8010BAF
:103DB00021680873E08F401EE08724E02068806857
:103DC00000F00200022812D1E08F012807D92888CC
:103DD0002168C860AD1CE08F801EE08713E015F8F5
:103DE000010B21680873E08F401EE0870BE03EB1B5
:103DF000701C40B1FEF75AF9A0EB0800B04202D3A4
:103E00004FF003091CE0E08F0028D7D1424631462D
:103E1000204601F037FD08B120202066A06850B987
:103E200000BF002000902068C06800902068806873
:103E3000009000BF00BF206E08B14FF0010900BF25
:103E4000012084F85D0000BF002084F85C0000BF02
:103E5000484632E72DE9FC5F04460D4616461F46EC
:103E6000DDF830804FF0000A0020019081464FF0CD
:103E7000010B009000BF94F85C00012802D10220E1
:103E800000F02AB9012084F85C0000BFFEF70EF9AB
:103E9000814694F85DA060680190BAF1010F0BD0E3
:103EA0000198B0F5827F04D1A06810B9BAF1040F6F
:103EB00002D00220009005E10DB106B117B9012032
:103EC0000090FFE094F85D00042802D0052084F8FB
:103ED0005D00002020662664A4F84670A4F84470B3
:103EE000A563E787A787E0642065E068B0F5E06F29
:103EF00003D8B4F84600012806D92068406820F4A9
:103F000080502168486005E02068406840F4805097
:103F1000216848602068006800F04000402805D013
:103F20002068006840F0400021680860E068B0F553
:103F3000E06F47D9606810B1E08F012806D128886A
:103F40002168C860AD1CE08F401EE08732E0BBF105
:103F5000000F10D0E08F70B12068806800F0020080
:103F6000022808D128882168C860AD1CE08F401E57
:103F7000E0874FF0000BB4F8460078B12068806805
:103F800000F0010050B12068C0683080B61CB4F861
:103F90004600401EA4F846004FF0010B08F1010056
:103FA00040B1FEF783F8A0EB0900404502D303209F
:103FB000009087E0E08F0028C9D1B4F846000028BF
:103FC000C5D174E0606810B1E08F012811D1E08F95
:103FD000012807D928882168C860AD1CE08F801EA1
:103FE000E08706E015F8010B21680873E08F401E9A
:103FF000E08755E0BBF1000F1BD0E08FC8B120680F
:10400000806800F00200022813D1E08F012807D950
:1040100028882168C860AD1CE08F801EE08706E01C
:1040200015F8010B21680873E08F401EE0874FF000
:10403000000BB4F8460038B32068806800F0010037
:1040400010B3B4F84600012813D92068C068308046
:10405000B61CB4F84600801EA4F84600B4F846002A
:1040600001280FD82068406840F4805021684860DB
:1040700008E02068007B06F8010BB4F84600401EFB
:10408000A4F846004FF0010B08F1010040B1FEF723
:104090000DF8A0EB0900404502D30320009011E089
:1040A000E08F0028A6D1B4F846000028A2D14A46E5
:1040B0004146204601F0E6FB18B101200090202087
:1040C000206600BF012084F85D0000BF002084F856
:1040D0005C0000BF0098D3E63CBCBDE8C09F04284C
:1040E00008D14FF0E021096941F004014FF0E022CE
:1040F000116107E04FF0E021096921F004014FF060
:10410000E02211617047000006480068401C054924
:1041100008600548006820B103480068401E024955
:1041200008607047140000201800002070B5044695
:104130002546681EB0F1807F01D301200FE0681E84
:104140004FF0E02148610F214FF0FF3003F094FA67
:1041500000204FF0E021886107200861002070BD39
:1041600010B5FFF7D1FF10BD704770470146002220
:10417000002391F8712091F8723042EA03007047F1
:104180002DE9F04104462068C5692068066820686A
:10419000876805F00F08B8F1000F0CD105F020007A
:1041A00048B106F0200030B1206E10B12046216EDB
:1041B0008847BDE8F081B8F1000F7FD007F001001B
:1041C00018B906F49070002878D005F0010048B1C5
:1041D00006F4807030B1012021680862606F40F001
:1041E0000100606705F0020048B107F0010030B13E
:1041F000022021680862606F40F00400606705F0EB
:10420000040048B107F0010030B1042021680862C1
:10421000606F40F00200606705F0080060B106F0D2
:10422000200010B907F0010030B1082021680862B1
:10423000606F40F008006067606F78B305F02000A1
:1042400038B106F0200020B1206E10B12046216E5A
:104250008847606F00F0080028B92068806800F087
:104260004000402824D1204603F0B6F8206880683A
:1042700000F04000402817D12068806820F04000FE
:1042800021688860E06E58B11F48E16E8863E06E77
:10429000FDF739FC10B1E06E816B88470DE00DE051
:1042A0002046FFF762FF08E02046FFF75EFF04E0CC
:1042B0002046FFF75AFF002060677AE705F4801078
:1042C00050B107F4800038B14FF4801021680862C3
:1042D0002046FFF749FF6CE705F0800040B106F08B
:1042E000800028B1606E10B12046616E884760E79B
:1042F00005F0400030B106F0400018B1204603F050
:104300007DF856E700BF54E7C173000810B50346B7
:1043100093F87200202862D101B10AB9012010BDC2
:1043200000BF93F87000012801D10220F7E70120B7
:1043300083F8700000BF5965A3F85820A3F85A20ED
:104340000020186600BF9868B0F5805F0AD1186930
:1043500020B940F2FF10A3F85C001CE0FF20A3F896
:104360005C0018E0986848B9186918B9FF20A3F8EC
:104370005C0010E07F20A3F85C000CE09868B0F1CE
:10438000805F08D1186918B97F20A3F85C0002E0AB
:104390003F20A3F85C0000BF00205867222083F86C
:1043A00072001868806840F001001C68A06098687E
:1043B000B0F5805F04D1186910B90A48186601E0A9
:1043C0000948186600BF002083F8700000BF186815
:1043D000006840F490701C68206000209FE7022075
:1043E0009DE700001F7400088B7400081D4A0168D7
:1043F000914236D11C49098801F4004189BB1A4910
:10440000098801F4804171B1184909780A2903D05B
:104410000021154A118024E01349098841F4004124
:10442000114A11801DE0114909780D2906D10E4964
:10443000098841F480410C4A118012E00B49097847
:10444000094A1288C2F30D02094B9954064909889A
:10445000491C054A118011460988132901DD0021F4
:104460001180704700380140700000207600002065
:10447000D40200207047000070B500246F48007817
:10448000012845D16E4A50686E4A916C88470020D9
:104490006A4908706C49087003206C49087032E062
:1044A0006A480078401E69490870664800231A4629
:1044B000456D674801880088A847664B01220F2197
:1044C000042002F0A7FD32206349086013E063482E
:1044D0000078012804D102F0A3F800205F49087099
:1044E00000F048FF0446012C05D100F04BF90446CA
:1044F000052C00D103E0584800680028E7D100BF30
:10450000052C00D103E0514800780028C8D100BF35
:104510005348007801280DD10020514908704D4BB7
:1045200001220F2102F076FD2820FDF7A1FBFCF708
:10453000DBFC7AE04A480078022876D1404A50688D
:10454000404A916C88470020454908703E490870F0
:104550003C4800231A46456D3D4801880088A8471D
:104560003C4B01220221104602F054FD64203A49DE
:10457000086055E039480078012804D102F050F86D
:1045800000203649087000F0F5FE0446012C47D1A2
:1045900000F0F8F80446032C42D102F0CBFF31487A
:1045A000006843F69821B0FBF1F201FB120000EE27
:1045B000100AB8EE400A2C4880ED000AD0ED000A3F
:1045C0002A4890ED000AB8EE400A30EE800AF3EE79
:1045D000070A30EE600ABCEEC00A80ED000A2148EE
:1045E000006823490968B0FBF1F201FB120043F6B1
:1045F0009821B0FBF1F52A4601211E48FFF757F834
:1046000001F0AEF801201C4908700B46012211464A
:10461000052002F0FFFC1420FDF72AFB04E004E073
:104620000D4800680028A5D100BF0648816B002016
:10463000884702F051FC002070BD000021000020DE
:10464000508700084C8600088800002020000020C9
:10465000CE0000201401002018000020940000204B
:1046600023000020A0000020380000201C000020B3
:104670009C000020A80500201E01002010B539482C
:10468000006878B9012038490870FEF7F7F8002271
:1046900011463648FFF70BF8002205213348FFF793
:1046A00006F85EE02F48006801285AD100202D4905
:1046B0000860FEF7E3F801212C48FEF7EFFF2C49D4
:1046C000086008460068002840D100212748FEF70E
:1046D000E5FF2849086008460068401C0860084655
:1046E000002102682148FEF7E2FF234800682349C1
:1046F000884202D90846204908601F48006843F6EE
:104700009821B0FBF1F01B490968B1FBF0F200FB06
:10471000121010B901201449087019480088164970
:104720000968484343F69821B0FBF1F01149096844
:10473000B1FBF0F200FB121038B902200A490870F0
:10474000002211460948FEF7B2FF0AE00848006857
:10475000401E074908600846012102680348FEF729
:10476000A6FF10BDCC28004023000020A805002093
:104770000C000020080000209C00002040771B0057
:10478000A40000202DE9F04F8BB00024A3460020A8
:10479000079006900490059082460025002602901E
:1047A0000390814601900090F9484078011DF84837
:1047B000801C00F0B9FF0646F5480078C0F3C0053C
:1047C000F348007800118DF82000F14840788DF80A
:1047D0002100EF48D0F802100291C088ADF80C001B
:1047E00000208DF82800EB4ADDE90210D2E9003202
:1047F00059405040014374D1002006E0E449095C6F
:10480000594401F0FF0B411CC8B2E1494978083115
:104810008142F3DCDE4840780830DD49085C5845C9
:10482000E9D19DF8200008287ED2DFE800F00407D7
:104830000AFDFCFBFAF900200690BEE2012006907A
:10484000BBE20824002D70D194E0D14810F804A0F8
:10485000BAF1020F30D006DCBAF1000F0AD0BAF17B
:10486000010F7DD11BE0BAF1030F3BD0BAF1FF0F6E
:104870007AD141E0C649201D095CC54AE01C105CA4
:1048800001EB0021A01C105C01EB0041601C105CDE
:1048900001EB0060C0490860601DC4B269E0BC491A
:1048A000A01C095CBA4A601C105C01EB0020BB49EB
:1048B0000880E01CC4B25CE0B549201D095CB44A24
:1048C000E01C105C01EB0021A01C105C01EB00411E
:1048D000601C105C01EB0060B1490860601DC4B24F
:1048E00047E06BE2AA49601C085C00EB8000AD4920
:1048F0000870A01CC4B23CE0A548007BA449C97A5A
:1049000000EB0120A249897A00EB0140A049497AD5
:1049100000EB0160A04908609D48807B9C49497B71
:1049200000EB01209D4901E046E250E008809848F4
:10493000807C9749497C00EB01209549097C00EB7C
:1049400001409349C97B00EB01609549086090489C
:10495000C07C00EB8000934908709DF8210000E0C6
:1049600002E00830C4B204E09DF821000830C4B26F
:1049700000BF00BF9DF821000830A0423FF765AF9F
:10498000854800688849884202D9084682490860FB
:104990008148006847F23051884202D208467E4979
:1049A00008607E4800880C2802DA0C207B490880C9
:1049B0007E4800687A490968884203D10020784916
:1049C000086088E0764800687849086083E0012D37
:1049D0007BD16F484078C01D6D49095C6C484078B8
:1049E000801D6B4A105C01EB002087B210464078B6
:1049F000801D1146095C10464078C01D105C01EB1B
:104A000000201FFA80F8B74201D0B04563D160485A
:104A1000807A5F49C97A00EB01201FFA80F904E02F
:104A2000C7E1C3E1B9E1B5E158E009F00300009046
:104A30004FEA99000190019808281AD1009810B106
:104A4000012814D108E05A485149C9680160594801
:104A50004F49096901600BE055484D49D1F80D10E7
:104A6000016054484A49D1F81110016000E000BFCC
:104A700000BF4F4890ED000ADFED4F0AB4EEE00AA8
:104A8000F1EE10FA08DC90ED000ADFED4C0AB4EE0E
:104A9000E00AF1EE10FA04D29FED470A444880ED97
:104AA000000A444890ED000ADFED450AB4EEE00A42
:104AB000F1EE10FA08D390ED000AF2EE040AB4EE1B
:104AC000E00AF1EE10FA06DD00E004E09FED3C0A9A
:104AD000384880ED000A022006906EE10824002D7F
:104AE00070D1ABE02A4810F804A0BAF1020F30D020
:104AF00006DCBAF1000F0AD0BAF1010F7ED11BE03B
:104B0000BAF1030F3AD0BAF1FF0F77D15BE0204939
:104B1000201D095C1E4AE01C105C01EB0021A01C5A
:104B2000105C01EB0041601C105C01EB00601A4955
:104B30000860601DC4B280E01549A01C095C144ADD
:104B4000601C105C01EB002014490880E01CC4B21A
:104B500073E00F49201D095C0D4AE01C105C01EB5D
:104B60000021A01C105C01EB0041601C105C01EBFB
:104B700000600B490860601DC4B25EE00449601C1F
:104B8000085C00EB800007490870A01CC4B254E028
:104B9000EA250020400000209C000020A400002006
:104BA000A0000020B000002040771B00B4000020CF
:104BB000A8000020AC0000200000164300002042A6
:104BC000000020C267E07F48007B7E49C97A00EB85
:104BD00001207C49897A00EB01407A49497A00EB4F
:104BE0000160794908607748807B7649497B00EB12
:104BF0000120764908807348807C00E018E0714904
:104C0000497C00EB01206F49097C00EB01406D49B4
:104C1000C97B00EB01606E4908606A48C07C00EB0C
:104C200080006C4908709DF821000830C4B204E08F
:104C30009DF821000830C4B200BF00BF9DF82100DC
:104C40000830A0423FF74EAF5F4800686249884293
:104C500002D908465C4908605B48006847F2305159
:104C6000884202D2084658490860584800880C28F3
:104C700002DA0C20554908805848006854490968F0
:104C8000884203D100205249086080E05048006803
:104C9000524908607BE0012D79D14A484078C01D17
:104CA0004849095C47484078801D464A105C01EB42
:104CB000002087B210464078801D1146095C1046DE
:104CC0004078C01D105C01EB00201FFA80F8B7424D
:104CD00001D0B0455BD13B48807A3A49C97A00EBB4
:104CE00001201FFA80F909F0030000904FEA9900B3
:104CF0000190019808281AD1009810B1012814D108
:104D000008E037482F49C968016036482D490969CC
:104D100001600BE032482B49D1F80D100160314899
:104D20002849D1F81110016000E000BF00BF2C48F5
:104D300090ED000A5FED600AB4EEE00AF1EE10FAC1
:104D400008DC90ED000A5FED630AB4EEE00AF1EED4
:104D500010FA04D21FED680A214880ED000A2148AC
:104D600090ED000A5FED6A0AB4EEE00AF1EE10FA87
:104D700008D390ED000AF2EE040AB4EEE00AF1EE78
:104D800010FA04DD1FED720A164880ED000A0320B8
:104D9000069012E0042006900FE0BAF1020F02D153
:104DA0000120114908700520069006E006200690B3
:104DB00003E00620069000E000BF00BF06980BB09D
:104DC00000F014B8EA2500209C000020A400002078
:104DD000A0000020B000002040771B00B40000209D
:104DE000A8000020AC000020B800002030BCBDE8C6
:104DF000C08F00BFFEE710B5FDF70EFC02F062FAAF
:104E0000FCF712F900F03EFA02F02EFA10BD01682C
:104E10008969C1F3400111B1002102689162016802
:104E2000896901F0010129B90168896941F001012D
:104E3000026891617047000070B504460D46164641
:104E400020688069C0F3001000283DD017E0681C7E
:104E5000A8B1FDF72BF9801BA84200D87DB9606C82
:104E600040F020006064202084F84100002084F895
:104E7000420000BF84F8400000BF012070BD2068E0
:104E80008069C0F340100028E1D010202168C8617B
:104E900020202168C8612046FFF7B9FF20684068DC
:104EA0000A49084021684860606C40F00400606472
:104EB000202084F84100002084F8420000BF84F8DC
:104EC000400000BF0120D9E70020D7E700E800FE3E
:104ED000F0B5059C05686D684FF4806606EA545687
:104EE00066F0FC2646F4C046B543C1F309064FF40C
:104EF0007F0707EA02473E431E43264335430668C1
:104F00007560F0BD2DE9F04104460E4617461D467A
:104F1000DDF8188019E0681CB8B1FDF7C7F8A0EB00
:104F20000800A84200D885B9606C40F02000606499
:104F3000202084F84100002084F8420000BF84F85B
:104F4000400000BF0120BDE8F0812068806930404A
:104F5000B04201D1012000E00020B842DBD00020A7
:104F6000F1E7000070B504460D46164640E03246B3
:104F700029462046FFF760FF08B1012070BD206878
:104F80008069C0F34010F8B120688069C0F38000E8
:104F900018B1208D08B10020F0E720202168C861F9
:104FA0002068406816490840216848600020606415
:104FB000202084F84100002084F8420000BF84F8DB
:104FC000400000BF0120D9E7FDF770F8801BA84220
:104FD00000D86DB9606C40F020006064202084F837
:104FE000410000BF002084F8400000BF0120C5E759
:104FF00020688069C0F380000028B8D00020BDE799
:1050000000E800FE70B504460D4616461DE0324627
:1050100029462046FFF710FF08B1012070BDFDF7BB
:1050200045F8801BA84200D87DB9606C40F0200094
:105030006064202084F84100002084F8420000BF12
:1050400084F8400000BF0120E8E720688069C0F3D1
:1050500040100028DBD00020E0E770B504460D4684
:1050600016461FE0324629462046FFF7E5FE08B106
:10507000012070BD681CA8B1FDF718F8801BA8427C
:1050800000D87DB9606C40F020006064202084F876
:105090004100002084F8420000BF84F8400000BFB7
:1050A0000120E6E720688069C0F340000028D9D0DD
:1050B0000020DEE78168024A1140491C8160704788
:1050C000C0FFFF7F0146886800F0E070704702462D
:1050D00002F1600000EB8103186800F0F8407047AF
:1050E00001468868C0F30070704701468868C0F3C5
:1050F000800070478168024A1140091D8160704735
:10510000C0FFFF7F70B501F000744FF0007595FA95
:10511000A5F5B5FA85F5EC4000F1140505EB84031F
:1051200001F0F8754FF0F87696FAA6F6B6FA86F61C
:10513000F5400726AE401C68B44301F0F8754FF007
:10514000F87696FAA6F6B6FA86F6F54002FA05F56E
:105150002C431C6070BD826822F0E0720A438260BA
:10516000704710B500F1600404EB81031C6824F063
:10517000004414431C6010BD0146B1F5807F38D057
:1051800012DC102930D008DC012925D0022925D0D5
:10519000042925D008292FD124E0202926D0402910
:1051A00025D0802928D123E0B1F5805F27D009DC04
:1051B000B1F5007F1ED0B1F5806F1ED0B1F5006F44
:1051C0001AD11BE0B1F5005F1AD0B1F5804F18D0AD
:1051D000B1F5004F10D115E0062070470720FCE71D
:1051E0000820FAE70920F8E70A20F6E700BF00BF29
:1051F00000BF00BF1720F0E700BF00BF00BF00BF27
:1052000000BF00BF2820E8E700B587B01A481B4957
:10521000086000204860002118488160C160016179
:105220000421416100218161C161012101620021EC
:105230004162C162016341634FF480518163002187
:10524000C163FCF78DFA08B1FBF7D6FC0C4801905E
:1052500006200290002003907F20049004200590F7
:105260000020069001A90548FBF7F8FF08B1FBF7FD
:10527000C3FC07B000BD0000000004504005002042
:105280000100008010B515481549086015484860B0
:105290000021134881600121C16000210161416149
:1052A0008161C1610162FCF771FF18B157210EA045
:1052B00002F0C0F900210A48FCF7FEFE18B15E2199
:1052C00009A002F0B7F900210548FCF72AFF18B140
:1052D000652105A002F0AEF910BD000000540040A9
:1052E000E40100200D0310002E2E5C5372635C4815
:1052F000572D48414C5C6932632E630010B5094854
:10530000094908600620486040F6FF710648C16000
:1053100040F6A5618160FDF73FF908B1FBF76CFC31
:1053200010BD000000300040DC05002000BFFEE79B
:105330007047000001200149087070478800002074
:105340000321014A117070478800002002200149A2
:1053500008707047880000200420014908707047D9
:10536000880000200520014908707047880000204F
:105370007047000038B500243948007806286AD202
:10538000DFE800F068032F421C5536481E223649DC
:10539000036E36489847334800231A46456D344813
:1053A00001880088A8472F48C16D324800680090E6
:1053B000884700202A49087001244DE0294800232D
:1053C0001A46456D2A4801880088A8472548C16DBE
:1053D000284800680090884700202149087004246C
:1053E0003AE0204800231A46456D2148018800888C
:1053F000A8471C48C16D1F480068009088470020DE
:1054000017490870022427E0164800231A46456D04
:10541000174801880088A8471248C16D15480068E0
:105420000090884700200E490870032414E00D48BE
:1054300000231A46456D0E4801880088A847094890
:10544000C16D0C480068009088470020044908702E
:10545000052401E000E000BF00BF204638BD000089
:10546000880000204C860008C8000020EA250020A3
:10547000CC000020DC0000202DE9F04104460E465F
:10548000002700255B48C06800F0030090B1594830
:10549000C06800F003002168884209D1206838B153
:1054A0005448C068C0F30210401C6168884233D081
:1054B000012531E02068012804D0022809D0032802
:1054C0001AD10DE04B48006800F0020000B9012538
:1054D00014E04848006800F4806000B901250DE040
:1054E0004448006800F4003028B94248006800F4DD
:1054F000802000B9012501E0012500BF00BF5DB992
:10550000D4E90010401E41EA00103A49C96821F070
:10551000730108433749C860002D67D135480068DA
:1055200020F0806033490860FCF7C0FD074606E0C4
:10553000FCF7BCFDC01B022801D9032505E02D485E
:10554000006800F000600028F2D100BFC5BB66B95A
:10555000A0680002217B40EAC16026490969264A09
:10556000114008432349086120E0012E0FD1A068B3
:105570000002218A0122C2EB510140EA41501D493B
:1055800009691E4A114008431A4908610EE0A068E3
:105590000002217D0122C2EB510140EA4160154920
:1055A0000969174A11400843124908611148006807
:1055B00040F080600F490860FCF778FD074607E07F
:1055C00014E0FCF773FDC01B022801D9032505E098
:1055D0000848006800F000600028F2D000BF2DB934
:1055E00004480069A1690843024908612846BDE8EA
:1055F000F081000000100240FF80FF07FF809FFF46
:10560000FF80FFF9F8B50446002600252348806D89
:1056100000F0805018B1FDF729F9064616E000BFEA
:105620001E48806D40F080501C4988650846806D9A
:1056300000F08050009000BF00BFFDF717F906464C
:105640001648806D20F0805014498865B6F5007FBB
:1056500007D1802C10D9A02C01D902250CE00125FE
:105660000AE0802C01D9032506E0802C01D1022517
:1056700002E0702C00D101250948006820F00700E5
:105680002843074908600846006800F00700A84260
:1056900001D00120F8BD0020FCE70000001002400E
:1056A0000020024010B50A480A49086000204860FE
:1056B0007F2108488160FF21C16000210161816173
:1056C000C161FEF715F908B1FBF796FA10BD0000AD
:1056D00000280040A805002070B504460025206879
:1056E000C06800F04000A0B9681E2168C860FCF7DF
:1056F000DDFC054607E0FCF7D9FC401BB0F57A7FDE
:1057000001D9032070BD2068C06800F04000002867
:10571000F1D00020F6E7000010B50248FEF7CCF803
:1057200010BD0000A805002070B502460C46FF25FC
:10573000FF2309E012F8010B80EA05010648405CEE
:1057400080EA03050548435C201EA4F10106B4B2BB
:10575000F0D143EA052070BDC8870008C88800085A
:1057600010B589B0002008900790069005909FED35
:105770003B0A8DED040A9FED390A8DED030A0024E2
:105780000290019000900422354908A8FBF743FBE2
:105790000898401C10B1334908980860022230492B
:1057A000091D05A8FBF737FBBDF814004FF6FF7184
:1057B000884203D0BDF814002B49088001222849F3
:1057C000891D02A8FBF727FB9DF80800FF2803D0DE
:1057D0009DF808002549087004222149C91D01A827
:1057E000FBF719FB0198401C50B104221C49C91D4C
:1057F00004A8FBF710FB9DED040A1D4880ED000A8C
:10580000042217490B316846FBF705FB0098401C42
:1058100050B1042212490B3103A8FBF7FCFA9DEDAD
:10582000030A144880ED000A04220D490F3107A82D
:10583000FBF7F1FA0798401C10B10F490798086070
:1058400004220E4906A8FBF7E6FA0698401C10B1A0
:105850000B490698086009B010BD00000000000068
:1058600000F001089C000020A4000020B0000020EF
:10587000A8000020AC000020B400002000F00008C8
:1058800010000020F8B504460E46154633460022A7
:105890004FF4C0512046009500F026F828B1206E44
:1058A00040F0200020660320F8BD3346002280210E
:1058B0002046009500F070F828B1206E40F02000DE
:1058C00020660320F0E7334600224FF4C0612046F3
:1058D000009500F009F828B1206E40F02000206605
:1058E0000320E1E70020DFE72DE9F84304460E46F8
:1058F00017461D46DDF8208047E0B6F5C06F05D19C
:1059000027B92068007B00909DF80000681CD8B380
:105910002DB1FCF7CBFBA0EB0800A84235D32068E3
:10592000406820F0E000216848606068B0F5827F40
:105930000DD1A068B0F5004F03D0A068B0F5806F1E
:1059400005D12068006820F0400021680860A06A46
:10595000B0F5005F0DD100BF2068006820F4005052
:10596000216808602068006840F4005021680860E1
:1059700000BF012084F85D0000BF002084F85C00B7
:1059800000BF0320BDE8F883FFE72068806830404F
:10599000B842B2D10020F5E72DE9F04104460E46A9
:1059A00017461D46DDF818803EE0681CD8B32DB1BF
:1059B000FCF77CFBA0EB0800A84235D320684068C8
:1059C00020F0E000216848606068B0F5827F0DD16A
:1059D000A068B0F5004F03D0A068B0F5806F05D186
:1059E0002068006820F0400021680860A06AB0F5D7
:1059F000005F0DD100BF2068006820F400502168CE
:105A000008602068006840F400502168086000BF0A
:105A1000012084F85D0000BF002084F85C0000BF16
:105A20000320BDE8F081FFE7206880683040B04285
:105A300001D1012000E00020B842B6D10020F0E7FB
:105A400000B52DED088B81B02C204F490870102037
:105A500048704FF6FF7002230A46942100904B488D
:105A6000FCF7ACFC4A4908704FF6FF700323494A23
:105A7000952100904548FCF7EFFB454908704548E3
:105A80000078FF2807D143484078FF2803D1002041
:105A90004049087048703F4840783E49097800EB1B
:105AA000012000EE100AB8EEC00A3B4880ED000A63
:105AB0000068FAF775FD41EC1B0B9FED380B53ECBA
:105AC000102BFAF752FC41EC1A0B9FED360B53ECFE
:105AD000102BFAF7BFFC41EC190B9FED340B53EC84
